:020000040800F2
:1000000000000220A92E00087D1A00087F1A0008AF
:10001000811A0008831A0008851A000800000000F1
:10002000000000000000000000000000871A000827
:10003000891A0008000000008B1A00088D1A0008B9
:10004000F92E0008F92E0008F92E0008F92E0008F4
:10005000F92E0008F92E0008F92E0008F92E0008E4
:10006000F92E0008F92E0008F92E0008F92E0008D4
:10007000F92E0008F92E0008F92E0008F92E0008C4
:10008000F92E0008F92E0008F92E0008F92E0008B4
:10009000F92E0008F92E0008F92E0008F92E0008A4
:1000A000F92E0008F92E0008F92E0008F92E000894
:1000B000F92E0008F92E0008F92E0008F92E000884
:1000C000F92E0008F92E0008F92E0008F92E000874
:1000D000F92E0008F92E0008F92E0008F92E000864
:1000E000F92E0008F92E0008F92E0008F92E000854
:1000F000F92E0008F92E0008F92E0008F92E000844
:10010000F92E0008F92E0008F92E0008F92E000833
:10011000F92E0008F92E0008F92E0008F92E000823
:10012000F92E0008F92E0008F92E0008F92E000813
:10013000F92E00080000000000000000F92E000861
:10014000F92E0008F92E0008F92E0008F92E0008F3
:10015000F92E0008F92E0008F92E0008F92E0008E3
:10016000F92E0008F92E0008F92E0008F92E0008D3
:10017000F92E0008F92E0008000000000000000021
:08018000F92E0008F92E000819
:1001880010B5054C237833B9044B13B10448AFF3C9
:1001980000800123237010BD3C04002000000000F3
:1001A8008831000808B5034B1BB103490348AFF376
:1001B800008008BD000000004004002088310008CD
:1001C80053B94AB9002908BF00281CBF4FF0FF31B6
:1001D8004FF0FF3001F0DEB8ADF1080C6DE904CE48
:1001E80000F006F8DDF804E0DDE9022304B070470A
:1001F8002DE9F047089D04468E46002B4DD18A42D2
:10020800944669D9B2FA82F252B101FA02F3C2F104
:10021800200120FA01F10CFA02FC41EA030E944095
:100228004FEA1C48210CBEFBF8F61FFA8CF708FBB6
:1002380016E341EA034306FB07F199420AD91CEB8E
:10024800030306F1FF3080F01F81994240F21C81C0
:10025800023E63445B1AA4B2B3FBF8F008FB103308
:1002680044EA034400FB07F7A7420AD91CEB04043D
:1002780000F1FF3380F00A81A74240F2078164440D
:10028800023840EA0640E41B00261DB1D440002392
:10029800C5E900433146BDE8F0878B4209D9002DF6
:1002A80000F0EF800026C5E9000130463146BDE880
:1002B800F087B3FA83F6002E4AD18B4202D38242EA
:1002C80000F2F980841A61EB030301209E46002D99
:1002D800E0D0C5E9004EDDE702B9FFDEB2FA82F2EE
:1002E800002A40F09280A1EB0C014FEA1C471FFA4C
:1002F8008CFE0126200CB1FBF7F307FB131140EA33
:1003080001410EFB03F0884208D91CEB010103F1FF
:10031800FF3802D2884200F2CB804346091AA4B2C1
:10032800B1FBF7F007FB101144EA01440EFB00FE95
:10033800A64508D91CEB040400F1FF3102D2A645FA
:1003480000F2BB800846A4EB0E0440EA03409CE799
:10035800C6F12007B34022FA07FC4CEA030C20FA46
:1003680007F401FA06F31C43F9404FEA1C4900FA66
:1003780006F3B1FBF9F8200C1FFA8CFE09FB1811E3
:1003880040EA014108FB0EF0884202FA06F20BD956
:100398001CEB010108F1FF3A80F08880884240F2A6
:1003A8008580A8F102086144091AA4B2B1FBF9F0EA
:1003B80009FB101144EA014100FB0EFE8E4508D9E5
:1003C8001CEB010100F1FF346CD28E456AD902386A
:1003D800614440EA0840A0FB0294A1EB0E01A1424F
:1003E800C846A64656D353D05DB1B3EB080261EBBD
:1003F8000E0101FA07F722FA06F3F1401F43C5E997
:10040800007100263146BDE8F087C2F12003D840CC
:100418000CFA02FC21FA03F3914001434FEA1C470E
:100428001FFA8CFEB3FBF7F007FB10360B0C43EA00
:10043800064300FB0EF69E4204FA02F408D91CEBB0
:10044800030300F1FF382FD29E422DD902386344AE
:100458009B1B89B2B3FBF7F607FB163341EA03414E
:1004680006FB0EF38B4208D91CEB010106F1FF389D
:1004780016D28B4214D9023E6144C91A46EA004694
:1004880038E72E46284605E70646E3E61846F8E626
:100498004B45A9D2B9EB020864EB0C0E0138A3E76F
:1004A8004646EAE7204694E74046D1E7D0467BE750
:1004B800023B614432E7304609E76444023842E7C8
:1004C80003685A004CBF43F0004323F0004318442C
:1004D800704700BF2DE9F84329B34F1E044615465F
:1004E8003E464FF0000808EB060101EBD1714910B8
:1004F80004EBC1094846FFF7E3FF0346C80008308C
:100508008F42204409D0AB4209D8FFF7D9FF013800
:10051800A8420AD201F10108E5E7AB4205D98845AE
:1005280001D04E1EDFE74FF000094846BDE8F883CA
:10053800012807D0022807D0044B00280CBF184612
:10054800002070470248704702487047110C0008A5
:10055800150C0008190C000830B5234B83B004466D
:100568008D1E3BB301A92846AFF30080E8B101997D
:100578002A46FFF7AFFF0146B8B1FFF7A1FF4B6866
:10058800A064012B2CD0002B01F1040024DBFFF721
:1005980097FF0023C4E913030368002B11DBFFF75F
:1005A8008FFF2061002003B030BD002309202361A4
:1005B80003B030BD0D4B0E49C91AC9101846019138
:1005C800D6E7C3F30360FFF7B3FF0028206114BF29
:1005D8000020092003B030BD0123C4E91303DBE781
:1005E800002323610520DEE700000000D831000861
:1005F800A83200080368DA0710B5044606D49B073A
:1006080000F1480009D500F05BFC2368590709D5BB
:100618001A070ED5DB0613D510BD00F049FC236878
:100628005907F5D404F1D00000F052FC23681A07EA
:10063800F0D404F5A87000F053FC2368DB06EBD473
:1006480004F5E870BDE8104000F08EBC0920704742
:100658000346006800B11844704700BF704700BFE8
:1006680070B504460E46316C2046FFF775FF054607
:1006780088B9326C62612369324621460120984765
:100688000828F0D0072806D12846316CFFF7E6FF86
:10069800301D00F001FC02F013FD00BF2DE9F0470A
:1006A8000D1DD0F80C80D0F81890074614460FCDD1
:1006B800ADF5727D0DF10C0CACE80F000FCDACE878
:1006C8000F000FCDACE80F0095E80F0002AE4FF019
:1006D800000E8CE80F00C6F800E020E0336C7B6168
:1006E8004FF4F07231467AA800F056FE3B697AAAB8
:1006F800394650469847889B73642146CDE900697E
:1007080005463B463A460120C0470446E0B94FF447
:10071800F0727AA9304600F03FFE082D1AD1316CEC
:100728003846FFF719FF09345FFA84FA05460028AE
:10073800D4D0B36B73643A46CDE900693B464AF0BE
:1007480010010120C04700B1092528460DF5727D2A
:10075800BDE8F087072DF7D12046316CFFF77EFF03
:1007680003A800F099FB00BF406C7047F0B5CB6B55
:100778000B6401F1040C0E460546BCE80F00F9B005
:1007880001AC0FC4BCE80F000FC4BCE80F000FC4D5
:100798009CE80F004FF0FF3784E80F00009706E051
:1007A8002B696A46294698470828044608D11099B3
:1007B8002846FFF7D1FE0028F2D0092079B0F0BD15
:1007C8006846FFF717FF062CF7D131462846FFF792
:1007D80047FF00BFC160D96B8261196400221946C6
:1007E8005CE700BF70B5C66843690B64AEB90369BE
:1007F8000A4604460D46014602209847072805D0B8
:1008080008280FD129462046FFF72AFF3046296CD1
:10081800FFF724FF281D00F03FFB0122FFF73EFFF2
:1008280002F04EFC02F04CFCC2681AB1CA6B0A64B2
:10083800002233E79AE700BF704700BF836801468C
:100848000BB1012018477047012912D009D873B994
:100858000F2A0CD800EB820218465368009A1360DE
:1008680070470339012994BF0120022070470220F4
:1008780070470846704700BF00B585B00A46002398
:1008880003A900911946FFF7DFFF039805B05DF84B
:1008980004FB00BF012912D009D873B90F2A0CD85C
:1008A80000EB8200009A12684260184670470339CC
:1008B800012994BF01200220704702207047084692
:1008C800704700BF10B584B0002303AC03920094B6
:1008D8000A461946FFF7DEFF04B010BD70B5D36BAA
:1008E800136402F1040C05460C46BCE80F00ADF594
:1008F8000E7D0DF15C0EAEE80F00BCE80F00AEE80F
:100908000F00BCE80F00AEE80F009CE80F004FF0A6
:10091800FF368EE80F00169610E0FFF7D3FF21464A
:1009280016A8A847034616AA6946082083B9049B57
:100938009847052806460CD0092809D02699684604
:10094800FFF70AFE03466A460C2116A8002BE4D0DE
:10095800092616A8FFF74EFE30460DF50E7D70BD30
:100968002DE9F04FCC6C89B01E4654F8043B069430
:100978000D46174600F00308002E79D01A0C1B0408
:1009880005938DF81D200223D2B204EB82048DF862
:100998001C302B6DB8F1020F08BFAC6B13F00103CC
:1009A8000CD005A9384600F079FB18B9082009B021
:1009B800BDE8F08F092009B0BDE8F08FD4F800A099
:1009C800BAF1000FEDD0019300F008030293022E54
:1009D8004AD0B4F800A0B4F802900434AB6C29F003
:1009E800010B0F2138469B44FFF746FF834539D852
:1009F8002AF001039B44834594BF002001204FEA5D
:100A0800490303F002030AF0010A43EA0A03012B2F
:100A180049D0022B32D0002BCCD1B8F1000F02D034
:100A2800002840F0CD800434D4F800A0BAF1000FBB
:100A3800CDD105A9384600F031FB0028BAD1019B79
:100A4800002BB3D00F213846FFF716FF0E210246C0
:100A58003846FFF737FF38466A4A0F21FFF732FF5B
:100A68000720A8E70020CAE7D4F804900834B5E7BF
:100A78001B0205930323ADF81C308AE7236823F093
:100A8800004BB8F1000F45D128B1029A002A5CD07A
:100A9800BBF1000F74D0002B00DA04340BF1010B0A
:100AA80004EB8B04C0E7B8F1000F19D1B0B163684B
:100AB8002268991C4FEAD2723FF47CAF05F15801C5
:100AC8000133049100F09080201DFFF7C1FD04ABB5
:100AD80001462846AFF3008000285BD10834A3E71D
:100AE8000D213846D5F82090FFF7C6FE8145F5D18F
:100AF800AB6A9C42F2D12046FFF7E2FC0F21024686
:100B08003846FFF7DFFE38462A460021FFF7DAFEAF
:100B1800072050E70D213846D5F82090FFF7ACFEA6
:100B2800814501D02368B6E7AB6A9C42FAD1042319
:100B38000022C5E90B23E318C5F828B06B632368C6
:100B4800002B59DB01230193A8E705F15803CDF8E1
:100B58000C8004F1040AB04691461E460EE0504649
:100B68000496FFF775FD0022014604AB284609F1FB
:100B780001090AF1040AAFF30080E0B9D945EED1C2
:100B88000D213846FFF778FE049BAC62C5E90803DF
:100B9800062010E781460D213846FFF76DFEB9F1B2
:100BA800020F286225D12B46049A43F82C2F6B623A
:100BB800AC620620FFE646462368DDF80C806AE74B
:100BC8002046FFF77DFC04340246AC6328461446F1
:100BD800AFF3008000283FF4EDAE384622460F21DF
:100BE800FFF770FE0720E6E60D213846FFF744FEC2
:100BF8002862049B6B62DBE70BF1010004EB8000C9
:100C08007AE700BF000000000023A9E60123A7E659
:100C18000223A5E62DE9F0430646C3B015461C4657
:100C2800042900F2BF80DFE801F09E57BD2D0300C4
:100C3800002C40F0B780102A00F2B4800368D80670
:100C480000F1F98020AF384600F098F9B46B3946C6
:100C580000234FF0010C0CFA03F22A42204603F15C
:100C6800010303D050F8042B0A600446042B01F159
:100C78000401F0D13846B46300F076F9002043B09F
:100C8800BDE8F083032C40F08D8094B204EB12434E
:100C9800102B4FEA124500F2858003681F0700F108
:100CA800D28020AF384600F03DF9B26B07EBC501A2
:100CB80054B10B46D01A01EBC401E4001D5843F8A7
:100CC800045B8B42FAD122443846B26300F008F93B
:100CD800002043B0BDE8F083012C4FEA124895B2DA
:100CE8005CD0052C5ED108EB0509B9F1200F59D865
:100CF800B8F10F0F79D9A946002D40F08A80B36B5F
:100D08006DB320AF4FF0000907EBC807043F03EBB2
:100D1800C50553F8041B47F8041FAB42F9D1B9F1D4
:100D2800000F0FD06F464146102938BF102107EB3E
:100D3800C101843903EBC90553F8040B41F8040FCA
:100D4800AB42F9D1012C00F08680B8F10F0FB563E2
:100D580047D9B9F1000F02D0684600F0B9F8002071
:100D680043B0BDE8F083ECB9806B23461FFA82FCE0
:100D78000124371D04FA03F212EA0C0F014604D0CD
:100D880051F8042B47F8232008460133102BF1D1E2
:100D980015F40055E3D1B063284604E008EB0503D9
:100DA800102B03D9022043B0BDE8F083B8F10F0F30
:100DB800F8D83368DA0706D5304623F0030340F83D
:100DC800483B00F079F820AF384600F075F8B36B6F
:100DD800002D97D11D460435B563384600F068F8F4
:100DE800BDE720A800F06CF8B3E7B9F1100F40D9BF
:100DF800A9F110093368D90708D523F00103304653
:100E080043F0020340F8483B00F05EF8B9F1000FE8
:100E180032D033685A0720D4B8F10F0F25D96F465E
:100E28003846C8F1100500F057F8002DB36B7FF76E
:100E38007AAF20AF68E723F01003336006F5E87057
:100E480000F09CF8FEE623F00803036000F5A870A4
:100E580000F068F825E720AFBDE7304623F004032B
:100E680040F8D03B00F038F8D6E720A800F02CF87E
:100E7800D5E74FF00009BDE7B8F10F0F3FF63FAFD8
:100E880020AF384600F020F8B36B002D7FF43AAF5E
:100E9800384600F015F862E700F1340191E83800AF
:100EA8009C46A6464CF8045D90E8FF0FE54600BD59
:100EB80090EC210B704700BF80EC210B704700BFFE
:100EC80090EC200B704700BF80EC200B704700BFF0
:100ED800D0EC200B704700BFC0EC200B704700BF60
:100EE800F0EC0201F0EC0211F0EC0221F0EC02311E
:100EF800F0EC0241F0EC0251F0EC0261F0EC02710E
:100F0800F0EC0281F0EC0291F0EC02A1F0EC02B1FD
:100F1800F0EC02C1F0EC02D1F0EC02E1F0EC02F1ED
:100F2800704700BFE0EC0201E0EC0211E0EC0221A6
:100F3800E0EC0231E0EC0241E0EC0251E0EC02614D
:100F4800E0EC0271E0EC0281E0EC0291E0EC02A13D
:100F5800E0EC02B1E0EC02C1E0EC02D1E0EC02E12D
:100F6800E0EC02F1704700BFB0FC0181B0FC0191D8
:100F7800B0FC01A1B0FC01B1704700BFA0FC018129
:100F8800A0FC0191A0FC01A1A0FC01B1704700BF29
:100F9800EC4600B52DE900502DE9FF1F4FF0000386
:100FA8002DE90C0001A9FFF7E1FBDDF840E012B0E4
:100FB800704700BFEC4600B52DE900502DE9FF1F32
:100FC8004FF000032DE90C0001A9FFF70BFCDDF839
:100FD80040E012B0704700BFEC4600B52DE9005064
:100FE8002DE9FF1F4FF000032DE90C0001A9FFF7C1
:100FF8001BFCDDF840E012B0704700BFEC4600B5BE
:101008002DE900502DE9FF1F4FF000032DE90C00DA
:1010180001ABFFF7DFFBDDF840E012B0704700BF1F
:10102800EC4600B52DE900502DE9FF1F4FF00003F5
:101038002DE90C0001AAFFF751FCDDF840E012B0E1
:10104800704700BF027A03467AB9427AA2B1416872
:10105800013A10B44272086803220C1D1A72020287
:101068005C60000E10BC1A6070470068013A1A7282
:1010780002021A60000E7047B020704700B585B0B4
:10108800002303AA009219460C22FFF7DDFB039800
:1010980005B05DF804FB00BFF0E700BF2DE9F043A1
:1010A800054685B00E464FF000083046FFF7CAFFE8
:1010B800B028044600F0BA80070620D500F0F003F7
:1010C800802B4DD0902B36D0A02B60D0B02B74D075
:1010D800C02B00F08B8000F0F803D02B0BD100F070
:1010E80007020132052342F4002201212846FFF7B6
:1010F80091FD0028D9D0092005B0BDE8F083830010
:10110800DBB21F1D0DF10C0900231946CDF8009024
:101118000D222846FFF798FB039BCDF80090600648
:101128004CBFDF1BFF1800230D22194628460397E2
:10113800FFF7B0FBB9E700F00D030D2BDBD003AFD1
:10114800002300F00F02194600972846FFF77CFBA2
:10115800002300970D2219462846FFF79BFBA4E7BA
:101168003046FFF76FFF24022043B0F5004FC2D08E
:1011780004010023A2B219462846FFF74BFD0028B8
:10118800B9D114F4004F18BF4FF001088DE7C243DE
:1011980002F007034FF47F621A41010702F47F62ED
:1011A8004FF0000348BF42F4804219462846FFF733
:1011B80031FD00283FF479AF9DE7B1283BD0B22834
:1011C80000F09380B32841D000F0FC03B42B92D0F8
:1011D80000F007020132012342F400221946284692
:1011E800FFF718FD00283FF460AF84E7C6284AD00F
:1011F800C72854D000F0F803C02B63D0C82868D0A3
:10120800C9287FF478AF3046FFF71CFF020300F0CF
:101218000F0002F470220130024301210523284601
:10122800FFF7F8FC00283FF440AF64E7B8F1000F7F
:1012380018D0002060E73046FFF704FF0246002878
:101248003FF459AF10F0F003C8D054E73046FFF729
:10125800F9FE020300F00F03013302F470221A436F
:101268000123BBE703AC43460E22414600942846BF
:10127800FFF7EAFA009443460F2241462846FFF753
:1012880009FB404638E73046FFF7DCFE020300F072
:101298000F03013302F470221A4303239EE73046FA
:1012A800FFF7D0FE024600283FF425AF10F0F00308
:1012B8007FF421AF04212846FFF7ACFC00283FF457
:1012C800F4AE18E700F00F020132032342F42022A3
:1012D80084E73046FFF7B6FE00F0F00200F00F0397
:1012E8001032013343EA023297E700230DF10C096B
:1012F8000D221946CDF800902846FFF7A5FA30468A
:10130800FFF7A0FE02064FF002040CD5039B00F085
:101318007F00A040184403903046FFF793FE030671
:1013280004F10704F2D4039BCDF8009000F07F028B
:10133800A24003F501731A440023039219460D22B3
:101348002846FFF7A7FAB0E610B5C26C536884B018
:101358004FF0030C08321C0208461B0E01A9019429
:1013680002928DF80CC08DF80D30FFF797FE04B08F
:1013780010BD00BF08B5FFF78FFE806C08BD00BF29
:1013880008B5FFF789FEC06CC379023300EB830010
:1013980008BD00BF704700BF844641EA000313F050
:1013A80003036DD1403A41D351F8043B40F8043B64
:1013B80051F8043B40F8043B51F8043B40F8043B27
:1013C80051F8043B40F8043B51F8043B40F8043B17
:1013D80051F8043B40F8043B51F8043B40F8043B07
:1013E80051F8043B40F8043B51F8043B40F8043BF7
:1013F80051F8043B40F8043B51F8043B40F8043BE7
:1014080051F8043B40F8043B51F8043B40F8043BD6
:1014180051F8043B40F8043B51F8043B40F8043BC6
:1014280051F8043B40F8043B403ABDD2303211D366
:1014380051F8043B40F8043B51F8043B40F8043BA6
:1014480051F8043B40F8043B51F8043B40F8043B96
:10145800103AEDD20C3205D351F8043B40F8043B66
:10146800043AF9D2043208D0D2071CBF11F8013B64
:1014780000F8013B01D30B8803806046704700BF2A
:10148800082A13D38B078DD010F003038AD0C3F139
:101498000403D21ADB071CBF11F8013B00F8013B1B
:1014A80080D331F8023B20F8023B7BE7043AD9D3DA
:1014B800013A11F8013B00F8013BF9D20B780370AF
:1014C8004B7843708B788370604670472DE9F04104
:1014D80088B0002403940494059406940794009417
:1014E800324B1A6B42F004021A631A6B02F00402C0
:1014F8000092009A01941A6B42F001021A631A6B67
:1015080002F001020192019A02941A6B42F002025F
:101518001A631B6B03F002030293029BDFF89880A7
:1015280022463D21404601F04FF84FF440530393C3
:10153800049405941E4F03A9384600F053FFF02386
:10154800039302260496059403250695052307931D
:1015580003A9184800F046FF3D2303930123049391
:101568000594069403A9404600F03CFF03960495B1
:10157800059403A9404600F035FF402303930496E1
:1015880005940694079503A9384600F02BFF4FF4FD
:10159800406303930496059406950823079303A9CB
:1015A800384600F01FFF08B0BDE8F081003802405F
:1015B80000080240000002400004024000B585B067
:1015C800002300930193029303931448144A026082
:1015D800436083600361037680F82030C362114A58
:1015E8008262C3600122C26180F83030426100F03B
:1015F80003FB68B90A230093012301930023029394
:101608006946064800F024FB28B905B05DF804FBDC
:1016180001F0EEFBEEE701F0EBFBF6E758040020E3
:10162800002001400100000F00B589B0002303939A
:101638000493059306930793026803F1804303F527
:1016480090339A4202D009B05DF804FB0021019161
:1016580003F58C335A6C42F480725A645A6C02F463
:1016680080720192019A02911A6B42F004021A6385
:101678001B6B03F004030293029B1F2303930323B2
:10168800049303A9014800F0ADFEDCE7000802401E
:1016980000B58DB02422002103A801F04FFC0023DF
:1016A8000193029311484FF08042026043608360C7
:1016B8004FF6FF72C26003618361012303930593B0
:1016C800099303A901F0B6F950B9002301930293D5
:1016D80001A9064801F03CFB28B90DB05DF804FBF0
:1016E80001F086FBF1E701F083FBF6E7E804002050
:1016F80000B589B0002303930493059306930793D9
:101708000368B3F1804F02D009B05DF804FB0021F3
:10171800019103F50E331A6C42F001021A641A6C37
:1017280002F001020192019A02911A6B42F0010241
:101738001A631B6B03F001030293029B03230393B9
:10174800022304930123079303A9024800F04AFEE9
:10175800DAE700BF000002400268094B9A4200D055
:10176800704782B000230193064B1A6C42F00402C2
:101778001A641B6C03F004030193019B02B07047C9
:10178800000800400038024082B00368104A9342C3
:1017980004D0104A93420ED002B070470023009341
:1017A8000D4B5A6C42F480325A645B6C03F48033FC
:1017B8000093009BF0E700230193074B1A6C42F05B
:1017C80040021A641B6C03F040030193019BE3E79A
:1017D80000400140001800400038024000B589B0C0
:1017E8000023039304930593069307930368294AF8
:1017F800934208D0284A93421CD0284A934230D0BA
:1018080009B05DF804FB00230093254B1A6B42F0E6
:1018180002021A631B6B03F002030093009B4FF450
:101828007073039302230493079303A91D4800F0E0
:10183800D9FDE5E700230193194B1A6B42F0010229
:101848001A631B6B03F001030193019B0C230393A1
:10185800022304930323079303A9134800F0C2FD4E
:10186800CEE7002302930E4B1A6B42F002021A6372
:101878001B6B03F002030293029B4FF40043039394
:10188800022304930923079303A9064800F0AAFD3D
:10189800B6E700BF000800400040014000180040C3
:1018A80000380240000402400000024000B58FB03A
:1018B80000230A930B930C930D93089309930193B8
:1018C8000293039304930593069307932F48304A92
:1018D80002604360836040F66A22C26003618361EC
:1018E80001F050F8002839D14FF480530A930AA91F
:1018F800264801F0AEF9002833D1244801F06EF8EB
:10190800002831D100230893099308A91F4801F042
:101918001FFA60BB60230193002202920392059292
:1019280001A91A4801F01AF920BB04220DEB0201A3
:10193800164801F013F900BB082201A9134801F069
:101948000DF9E8B90C2201A9104801F007F9D0B93E
:101958000E48FFF743FF0FB05DF804FB01F048FAAB
:10196800C2E701F045FAC8E701F042FACAE701F018
:101978003FFACFE701F03CFAD7E701F039FADBE7A5
:1019880001F036FADEE701F033FAE1E7300500202E
:101998000008004000B589B0002301930293039327
:1019A80004930593069307931648174A0260436009
:1019B80083604FF6FF72C2600361836101F00EF825
:1019C800B8B960230193002202920392059201A9FB
:1019D8000C4801F0C3F878B904220DEB020109485C
:1019E80001F0BCF858B90748FFF7F8FE09B05DF8F0
:1019F80004FB01F0FDF9E4E701F0FAF9ECE701F086
:101A0800F7F9F0E7780500200040014000B589B0FB
:101A1800002301930293039304930593069307937A
:101A28001248134A0260436083604FF6FF72C26037
:101A38000361836100F0D2FF90B960230193002312
:101A480002930393059304220DEB0201074801F06A
:101A580085F840B90548FFF7C1FE09B05DF804FBF9
:101A680001F0C6F9E9E701F0C3F9F3E7A0040020A3
:101A780000180040FEE7FEE7FEE7FEE7FEE77047D6
:101A88007047704708B500F043FE08BD82B00021DA
:101A980000910B4B5A6C42F480425A645A6C02F41F
:101AA80080420092009A01911A6C42F080521A64A6
:101AB8001B6C03F080530193019B02B0704700BF79
:101AC800003802404A4B5A6822F440325A605A6839
:101AD80041680A435A600268536823F4807353606C
:101AE80002685368016943EA012353600268536836
:101AF80023F0407353600268536881680B43536056
:101B08000268936823F40063936002689368C1686D
:101B18000B439360826A374B9A4257D002689368A6
:101B280023F07063936002689368816A0B43936043
:101B38000268936823F04053936002689368C16A0F
:101B48000B4393600268936823F002039360026872
:101B58009368017E43EA4103936090F82030002B9C
:101B68003FD00268536843F40063536002685368C7
:101B780023F46043536001684B68426A013A43EAC0
:101B880042334B600268D36A23F47003D36201685E
:101B9800CB6AC269013A43EA0253CB62026893688E
:101BA80023F4007393600268936890F8301043EA56
:101BB800412393600268936823F48063936002680A
:101BC8009368416943EA8123936070470268936888
:101BD80023F0706393600268936823F04053936026
:101BE800B0E70268536823F400635360CAE700BF94
:101BF800002301400100000F38B310B50446036C00
:101C080043B1236C13F0100F0BD00120002384F88C
:101C18003C3010BDFFF708FD0023636484F83C30B6
:101C2800EFE7236C23F4885323F0020343F0020305
:101C380023642046FFF746FF00206064236C23F0EE
:101C4800030343F001032364E0E701207047000029
:101C580030B482B00023019390F83C30012B00F09F
:101C6800BB80012380F83C300B68092B41D90468FC
:101C7800E2689BB203EB43031E3B4FF0070C0CFAE0
:101C880003F322EA0303E3600468E2680B8803EBCA
:101C980043031E3B8D6805FA03F31343E3604B6867
:101CA800062B3DD80468626B03EB8303053B4FF0BA
:101CB8001F0C0CFA03F322EA030363630468626BE4
:101CC8004B6803EB8303053BB1F800C00CFA03F340
:101CD800134363630268414B9A4251D002683F4BF9
:101CE8009A4256D0002380F83C30184602B030BCE7
:101CF8007047046822699BB203EB43034FF0070C5B
:101D08000CFA03F322EA03032361046822690B88AF
:101D180003EB43038D6805FA03F313432361BEE71E
:101D28000C2B16D805682A6B03EB8303233B1F246F
:101D380004FA03F322EA03032B6305682A6B4B6852
:101D480003EB8303233B0C8804FA03F313432B634D
:101D5800C0E70568EA6A03EB8303413B1F2404FAE2
:101D680003F322EA0303EB620568EA6A4B6803EBB4
:101D78008303413B0C8804FA03F31343EB62A9E79E
:101D88000B68122BAAD1164A536843F48003536098
:101D9800A4E70B68103B012BA4D8114A536843F4FD
:101DA800000353600B68102B9CD10E4B1B6802F18B
:101DB800467202F52E3202F28332A2FB03239B0CF9
:101DC80003EB83035B00019302E0019B013B01935A
:101DD800019B002BF9D185E7022087E7002001400D
:101DE8000023014008000020002800F0E08170B5C1
:101DF80082B00446036813F0010F3BD09F4B9B68E9
:101E080003F00C03042B2CD09C4B9B6803F00C03B1
:101E1800082B21D06368B3F5803F4FD0B3F5A02FCE
:101E280052D0964B1A6822F480321A601A6822F44B
:101E380080221A606368002B50D000F075FC0546BC
:101E48008E4B1B6813F4003F14D100F06DFC401B4F
:101E58006428F5D90320B1E1884B5B6813F4800F3F
:101E6800D8D0864B1B6813F4003F03D06368002B5F
:101E780000F09F81236813F0020F54D07F4B9B68BA
:101E880013F00C0F3ED07D4B9B6803F00C03082B1E
:101E980033D0E368002B68D0794B01221A6000F038
:101EA80043FC0546754B1B6813F0020F54D100F034
:101EB8003BFC401B0228F5D903207FE16F4A1368D9
:101EC80043F480331360B5E76C4B1A6842F4802200
:101ED8001A601A6842F480321A60ABE700F024FCFA
:101EE8000546664B1B6813F4003FC3D000F01CFC8A
:101EF800401B6428F5D9032060E1604B5B6813F44C
:101F0800800FC6D15D4B1B6813F0020F03D0E36846
:101F1800012B40F05081594A136823F0F8032169D6
:101F280043EAC1031360236813F0080F42D06369C2
:101F38006BB3534B0122C3F8802E00F0F5FB054626
:101F48004E4B5B6F13F0020F34D100F0EDFB401BDA
:101F58000228F5D9032031E1484A136823F0F80331
:101F6800216943EAC1031360DDE7454B00221A608B
:101F780000F0DAFB0546414B1B6813F0020FD2D084
:101F880000F0D2FB401B0228F5D9032016E13C4B98
:101F98000022C3F8802E00F0C7FB0546374B5B6F65
:101FA80013F0020F06D000F0BFFB401B0228F5D942
:101FB800032003E1236813F0040F77D02F4B1B6C29
:101FC80013F0805F33D1002301932C4B1A6C42F03D
:101FD80080521A641B6C03F080530193019B012506
:101FE800284B1B6813F4807F23D0A368012B34D0BF
:101FF800052B38D0214B1A6F22F001021A671A6F8D
:1020080022F004021A67A368002B3DD000F08CFB75
:1020180006461A4B1B6F13F0020F46D100F084FBE3
:10202800801B41F288339842F3D90320C6E000258B
:10203800D6E7144A136843F48073136000F074FB06
:102048000646104B1B6813F4807FCED100F06CFB62
:10205800801B0228F5D90320B0E0084A136F43F02B
:1020680001031367CFE7054B1A6F42F004021A67A2
:102078001A6F42F001021A67C5E700BF0038024034
:10208800000047420070004000F04EFB0646524BED
:102098001B6F13F0020F08D000F046FB801B41F2C3
:1020A80088339842F3D9032088E0EDB9A369002B5F
:1020B80000F08380484A926802F00C02082A51D046
:1020C800022B17D0454B00221A6600F02DFB044660
:1020D800414B1B6813F0007F42D000F025FB001B2A
:1020E8000228F5D9032069E03B4A136C23F080539A
:1020F8001364DBE7394B00221A6600F015FB05462E
:10210800354B1B6813F0007F06D000F00DFB401B19
:102118000228F5D9032051E0E369226A1343626A71
:1021280043EA8213A26A5208013A43EA0243E26A86
:1021380043EA0263284A5360284B01221A6600F0DA
:10214800F3FA0446244B1B6813F0007F06D100F015
:10215800EBFA001B0228F5D903202FE000202DE020
:1021680000202BE0012B2BD01B4B5B6803F4800174
:10217800E269914226D103F03F02216A8A4223D1C3
:10218800616A47F6C0721A40B2EB811F1ED103F490
:102198004031A26A5208013AB1EB024F18D103F05C
:1021A8007063E26AB3EB026F14D1002006E00120ED
:1021B8007047012002E0012000E0002002B070BD5D
:1021C8000120FBE70120F9E70120F7E70120F5E707
:1021D8000120F3E70120F1E7003802400000474200
:1021E80008B5254B9B6803F00C03042B3FD0082B44
:1021F8003FD1214B5A6802F03F025B6813F4800F0D
:1022080012D01D4B5968C1F388111C480023A1FB4B
:102218000001FDF7D5FF184B5B68C3F30143013399
:102228005B00B0FBF3F025E0134B5968C1F3881C41
:102238004FEA4C11B1EB0C006EEB0E0E4FEA8E1309
:1022480043EA90638101091A63EB0E03DB0043EA5A
:102258005173C90011EB0C0C43F1000399020023E0
:102268004FEA8C2041EA9C51FDF7AAFFD3E70348C7
:1022780000E0034808BD00BF0038024040787D01F7
:102288000024F400002800F09B8070B50D46044639
:102298004F4B1B6803F007038B4208D2CBB24C4A62
:1022A8001370136803F007038B4240F08B80236898
:1022B80013F0020F17D013F0040F04D0454A9368A7
:1022C80043F4E0539360236813F0080F04D0414AA5
:1022D800936843F4604393603E4A936823F0F003A5
:1022E800A1680B439360236813F0010F32D0636831
:1022F800012B21D09A1E012A25D9364A126812F0DC
:10230800020F61D033498A6822F0030213438B60BD
:1023180000F00AFA06462F4B9B6803F00C0362682C
:10232800B3EB820F16D000F0FFF9801B41F288331F
:102338009842F0D9032042E0264A126812F4003F7E
:10234800E0D101203BE0234A126812F0007FD9D186
:10235800012034E01E4B1B6803F00703AB4207D98A
:10236800EAB21B4B1A701B6803F00703AB422DD16E
:10237800236813F0040F06D0164A936823F4E05339
:10238800E1680B439360236813F0080F07D0114AE4
:10239800936823F46043216943EAC1039360FFF71C
:1023A8001FFF0C4B9B68C3F303130B4AD35CD84045
:1023B8000A4B18600A4B186800F06AF9002070BDD3
:1023C800012070470120FAE70120F8E70120F6E72D
:1023D800003C024000380240A031000808000020FC
:1023E8000400002000230F2B00F2E48070B582B0B7
:1023F80060E085685E000324B44025EA0405CC68E3
:10240800B4402C438460456825EA02054C68C4F34F
:1024180000129A402A4342605AE0DC08083450F817
:10242800246003F0070295000F22AA4026EA020E54
:102438000A69AA4042EA0E0240F824205CE007221A
:1024480000E0002202FA0EF22A4302345A4D45F8FF
:1024580024205A4A14686FEA0C0224EA0C054E68D4
:1024680016F4803F01D04CEA0405544C256064689A
:1024780002EA04054E6816F4003F01D04CEA040550
:102488004E4C6560A46802EA04054E6816F4801F85
:1024980001D04CEA0405494CA560E46822404D6827
:1024A80015F4001F01D04CEA0402444CE2600133E9
:1024B8000F2B7DD801229A400C6804EA020C32EAFC
:1024C8000404F4D14C6804F00304013C012C90D9B5
:1024D8004A6802F00302032A09D0C4685D00032297
:1024E800AA4024EA02048A68AA402243C2604A68D1
:1024F80002F00302022A90D004684FEA430E032236
:1025080002FA0EF224EA02044A6802F0030202FA0E
:102518000EF2224302604A6812F4403FC7D00022FC
:102528000192274A546C44F480445464526C02F477
:1025380080420192019A9C08A51C1F4A52F8255016
:1025480003F003024FEA820E0F2202FA0EF225EA86
:1025580002051C4A90423FF474AF02F58062904233
:102568001AD002F58062904218D002F5806290423B
:1025780016D002F58062904214D002F58062904233
:1025880012D002F58062904210D002F5806290422B
:102598003FF455AF082255E7012253E7022251E7DD
:1025A80003224FE704224DE705224BE7062249E7BD
:1025B80002B070BD704700BF00380140003C0140C8
:1025C80000380240000002400AB1816170470904E6
:1025D80081617047074AD36823F4E0631B041B0C2E
:1025E800000200F4E060034343F0BF6343F40033A8
:1025F800D360704700ED00E000B5194BDB68C3F30A
:102608000223C3F1070CBCF1040F28BF4FF0040CE0
:1026180003F1040EBEF1060F18D9033B4FF0FF3E3D
:102628000EFA0CFC21EA0C0199400EFA03F322EA97
:102638000303194300280BDB0901C9B200F160400C
:1026480000F5614080F800135DF804FB0023E5E71E
:1026580000F00F000901C9B2024B1954F4E700BF9A
:1026680000ED00E014ED00E00138B0F1807F0BD2FE
:102678004FF0E0235861054AF02182F8231000202A
:10268800986107221A6170470120704700ED00E049
:1026980010B504460E4B18784FF47A73B3FBF0F379
:1026A8000C4A1068B0FBF3F0FFF7DEFF68B90F2C97
:1026B80001D901200AE0002221464FF0FF30FFF740
:1026C8009BFF054B1C60002000E0012010BD00BFEF
:1026D80000000020080000200400002008B50B4B73
:1026E8001A6842F400721A601A6842F480621A602A
:1026F8001A6842F480721A600320FFF76BFF00200B
:10270800FFF7C6FFFFF7C2F9002008BD003C0240F2
:10271800034A1168034B1B780B441360704700BFD2
:10272800C005002000000020014B1868704700BF5A
:10273800C005002030B4036A23F001030362036A72
:102748004268846924F073040D682C4323F0020C5A
:102758008B6843EA0C03104DA84203D005F5806549
:10276800A84205D123F00803CD682B4323F00403C6
:10277800094DA84203D005F58065A84205D122F489
:1027880040724D692A438D692A43426084614A68D0
:102798004263036230BC70470000014030B4036AF2
:1027A80023F480730362036A4268C46924F0730CDB
:1027B8000C6844EA0C0523F400738C6843EA04238C
:1027C800114CA04203D004F58064A04206D123F442
:1027D8000063CC6843EA042323F480630A4CA042D4
:1027E80003D004F58064A04207D122F440524C691A
:1027F80042EA04128C6942EA04124260C5614A68DE
:10280800C263036230BC70470000014030B4036A01
:1028180023F480530362036A4468C26922F4E642DF
:102828000D6842EA052223F400538D6843EA053314
:10283800094DA84203D005F58065A84204D124F4C7
:1028480080444D6944EA85144460C2614A68026460
:10285800036230BC704700BF0000014010B4036A37
:10286800046A24F001040462846924F0F00C4CEA40
:10287800021223F00A030B43826103625DF8044BE2
:10288800704710B4046A24F0100404628469036A6F
:1028980024F4704C4CEA023223F0A00343EA0113FB
:1028A800826103625DF8044B7047836823F070030C
:1028B8000B4343F007038360704700000368304A06
:1028C800904212D0B0F1804F0FD0A2F57C429042D6
:1028D8000BD002F58062904207D002F580629042E8
:1028E80003D002F57842904203D123F070034A687E
:1028F8001343234A90422AD0B0F1804F27D0A2F543
:102908007C42904223D002F5806290421FD002F5AB
:10291800806290421BD002F57842904217D002F5AF
:102928007052904213D002F5806290420FD002F5A7
:10293800806290420BD0A2F59832904207D002F5FF
:102948008062904203D002F58062904203D123F462
:102958004073CA68134323F080034A691343036032
:102968008B68C3620B688362054B984203D003F5FA
:102978008063984201D10B69036301234361704767
:102988000000014040B310B5044690F83D30F3B163
:10299800022384F83D30214651F8040BFFF78EFFDF
:1029A800012384F8463084F83E3084F83F3084F8B8
:1029B800403084F8413084F8423084F8433084F859
:1029C800443084F8453084F83D30002010BD80F84C
:1029D8003C30FEF7C1FEDBE70120704740B310B57D
:1029E800044690F83D30F3B1022384F83D30214687
:1029F80051F8040BFFF762FF012384F8463084F88E
:102A08003E3084F83F3084F8403084F8413084F810
:102A1800423084F8433084F8443084F8453084F8F0
:102A28003D30002010BD80F83C30FEF7ADFEDBE7FE
:102A380001207047002856D0F8B50D46044690F896
:102A48003D30002B4AD0022384F83D302268936839
:102A580023F4804323F007039360214651F8040BC5
:102A6800FFF72CFF21688A688B690E6A2868104373
:102A780023F4407C2CF0030CAA68AB6942EA0323D8
:102A880043EA0C0323F47C4323F0FC03EA69EF6870
:102A980047EA022C4CEA030C2A6A13032A6943EA20
:102AA800021343EA0C0326F0AA066A686D6942EA33
:102AB80005123243886021688B6123681A620123FA
:102AC80084F8463084F83E3084F83F3084F8423049
:102AD80084F8433084F83D300020F8BD80F83C305D
:102AE800FEF706FEAFE701207047000030B4036A26
:102AF80023F010030362036A4468826922F4E64201
:102B08000D6842EA052223F020038D6843EA051385
:102B1800114DA84203D005F58065A84206D123F0DF
:102B28008003CD6843EA051323F040030A4DA84209
:102B380003D005F58065A84207D124F440644D69A7
:102B480044EA85048D6944EA8504446082614A68E0
:102B58008263036230BC70470000014038B590F8CA
:102B68003C30012B66D004460D46012380F83C30EA
:102B78000C2A5AD8DFE802F0075959591B595959F4
:102B88003059595944000068FFF7D4FD2268936909
:102B980043F0080393612268936923F00403936167
:102BA8002268936929690B43936100203EE000681D
:102BB800FFF79CFF2268936943F4006393612268DE
:102BC800936923F48063936122689369296943EACE
:102BD80001239361002029E00068FFF7DFFD2268E8
:102BE800D36943F00803D3612268D36923F004034F
:102BF800D3612268D36929690B43D361002015E0AA
:102C08000068FFF703FE2268D36943F40063D361C9
:102C18002268D36923F48063D3612268D369296960
:102C280043EA0123D361002000E00120002384F857
:102C38003C3038BD0220FCE710B4846824F47F4C93
:102C480042EA03220A4342EA0C0282605DF8044B1E
:102C5800704790F83C30012B78D010B5044601231A
:102C680080F83C30022380F83D300268936823F4F2
:102C78007F4323F0770393600B68602B4CD029D8EF
:102C8800402B54D00CD9502B22D1CA68496800680F
:102C9800FFF7E4FD50212068FFF707FE002005E05C
:102CA800202B0DD009D9302B0AD00120012384F81C
:102CB8003D30002384F83C3010BD0BB1102B05D1FA
:102CC80019462068FFF7F1FD0020EFE70120EDE746
:102CD8000120EBE7B3F5805F34D0B3F5005F0CD18A
:102CE800CB684A6889680068FFF7A6FF226893687E
:102CF80043F4804393600020D8E7702B24D1CB683D
:102D08004A6889680068FFF797FF2268936843F06C
:102D1800770393600020C9E7CA6849680068FFF72D
:102D2800B0FD60212068FFF7C0FD0020BEE7CA683B
:102D380049680068FFF792FD40212068FFF7B5FD5C
:102D48000020B3E70020B1E70120AFE70220704779
:102D580090F83C30012B3DD010B4012380F83C3072
:102D6800022380F83D3003685A689C6822F0700C92
:102D78000A6842EA0C025A600368174A93421AD05A
:102D8800B3F1804F17D0A2F57C42934213D002F5DD
:102D9800806293420FD002F5806293420BD002F515
:102DA8007842934207D002F57052934203D0A2F5BD
:102DB8009432934204D124F080044A6814439C60FE
:102DC800012380F83D30002380F83C3018465DF838
:102DD800044B70470220704700000140034AD2F8B4
:102DE800883043F47003C2F88830704700ED00E083
:102DF80072B6FEE700B595B03022002108A800F0B1
:102E08009DF8002303930493059306930793019376
:102E1800184A116C41F080511164126C02F0805212
:102E28000192019A0293144A116841F48041116099
:102E3800126802F480420292029A02220892012247
:102E48000B9210220C920E9308A8FEF7CDFF68B9DA
:102E58000F2303930021049105910691079103A87C
:102E6800FFF710FA20B915B05DF804FBFFF7C0FFB3
:102E7800FFF7BEFF003802400070004008B5FFF7BA
:102E88002DFCFFF7B7FFFEF721FBFEF797FBFEF7D8
:102E9800FFFBFEF70BFDFEF77DFDFEF7B7FDFEE736
:102EA800DFF834D00D480E490E4A002302E0D4580A
:102EB800C4500433C4188C42F9D30B4A0B4C00237A
:102EC80001E013600432A242FBD3FFF787FF00F052
:102ED80011F8FFF7D3FF7047000002200000002020
:102EE8003C040020B43200083C040020CC0500203B
:102EF800FEE7000070B50D4E0D4D761BB61006D0DE
:102F0800002455F8043B01349847A642F9D1094EEC
:102F1800094D761B00F034F9B61006D0002455F898
:102F2800043B01349847A642F9D170BDA832000885
:102F3800A8320008B0320008A8320008830730B56C
:102F480048D0541E002A3FD0CAB2034601E0013CD3
:102F58003AD303F8012B9D07F9D1032C2DD9CDB213
:102F680045EA05250F2C45EA054536D9A4F1100296
:102F780022F00F0C03F1200EE6444FEA121C03F175
:102F8800100242E9045542E9025510327245F8D15F
:102F98000CF1010214F00C0F03EB021204F00F0CF9
:102FA80013D0ACF1040323F003030433134442F8B1
:102FB800045B9342FBD10CF003042CB1CAB21C444D
:102FC80003F8012B9C42FBD130BD64461346002C0C
:102FD800F4D1F9E703461446BFE71A46A446E0E7EA
:102FE800024B13B1024800F005B87047000000001A
:102FF80009300008002301461A46184600F01AB89E
:1030080038B5084B084D5B1B9C1007D0043B1D448A
:10301800013C55F804399847002CF9D1BDE83840EF
:1030280000F0B4B8B4320008B0320008704700BFEE
:10303800704700BF2DE9F047DFF880A00646DAF8B0
:10304800000098460F469146FFF7F0FF1A4B1B68A1
:10305800D3F8484124B365681F2D26DC5EB96B1C84
:103068000235DAF80000636044F82570FFF7E0FFE6
:103078000020BDE8F08704EB85010123C1F88890A2
:10308800D4F88821AB401A43022EC4F88821C1F82D
:103098000881E4D1D4F88C211343C4F88C31DEE7DD
:1030A80003F5A674C3F84841D5E7DAF80000FFF73E
:1030B800BFFF4FF0FF30DCE7B031000838040020D4
:1030C80008B5062000F004F8012000F057F800BF0A
:1030D80038B5154B1F281D6820D8D5F8DC220446C2
:1030E80062B152F820304BB1012B15D0591C0FD0CA
:1030F800002542F820509847284638BD284600F059
:103108002BF8224601462846BDE8384000F00EB8A4
:1031180016232B60012038BD002038BD16232B60F4
:103128004FF0FF3038BD00BF0C00002070B50C46D2
:10313800084D03460026204611461C462E6000F026
:1031480015F8431C00D070BD2B68002BFBD0236002
:1031580070BD00BFC805002000F000B8024B58221F
:103168001A604FF0FF307047C8050020024B582204
:103178001A604FF0FF307047C8050020FEE700BF17
:10318800F8B500BFF8BC08BC9E467047F8B500BF4C
:08319800F8BC08BC9E4670471C
:1031A00000000000000000000102030406070809F7
:0431B00010000020EB
:1031B40008B10181B0B000840000000008B10181B1
:1031C400B0B000840000000008B10181B0B00084F8
:0431D40000000000F7
:1031D80020D0FF7F0100000080D3FF7FB0A90280CC
:1031E80014D4FF7FB0B0A88064D4FF7F0100000032
:1031F80070D4FF7FB0B0AA80A4D4FF7FAE71B28034
:1032080068D5FF7F0100000064D5FF7FAB3F3880A1
:10321800C4D5FF7F01000000CCD5FF7FB0B0AA80E5
:1032280008D6FF7F01000000B4D6FF7FAA0DB28048
:1032380030D7FF7FB0AF0880D0D9FF7F01000000F2
:10324800D4D9FF7FAD3F028050DCFF7F0100000032
:103258002CDEFF7F0084048040DEFF7F0100000039
:103268003CDEFF7FB0AD0480E0E0FF7FB0A80380C4
:1032780004E1FF7F44FFFF7F08E1FF7F48FFFF7FF6
:1032880014E1FF7F010000006CFBFF7F00841480C5
:10329800ECFBFF7F18FFFF7F08FCFF7F01000000A9
:0832A800E92F0008AD01000848
:0432B0008901000888
:1032B40001000000100000000024F40010000020B1
:1032C40000000000FC02002064030020CC03002066
:1032D40000000000000000000000000000000000EA
:1032E40000000000000000000000000000000000DA
:1032F40000000000000000000000000000000000CA
:1033040000000000000000000000000000000000B9
:1033140000000000000000000000000000000000A9
:103324000000000000000000000000000000000099
:103334000000000000000000000000000000000089
:103344000000000000000000000000000000000079
:103354000000000000000000000000000000000069
:103364000000000000000000010000000000000058
:103374000E33CDAB34126DE6ECDE05000B0000001D
:103384000000000000000000000000000000000039
:103394000000000000000000000000000000000029
:1033A4000000000000000000000000000000000019
:1033B4000000000000000000000000000000000009
:0C36E4000000000000000000C4050020F1
:0400000508002EA918
:00000001FF
